:100000004F29A0007F39201B803C0920A01B003C09
:1000100008008A01820700340334063409340C34A2
:1000200010341334163419341C341F34223425345C
:1000300028342B342E3431343334363439343C3490
:100040003F3441344434473449344C344E345134D1
:100050005334553458345A345C345E34603462342A
:100060006434663468346A346B346D346F3470349D
:1000700071347334743475347634783479347A3432
:100080007A347B347C347D347D347E347E347E34EB
:100090007F347F347F347F34A4002508A402031CFE
:1000A000A5032708A602031CA7033709A2003509E8
:1000B000A300A20A0319A30A4130A900AC01AD01B3
:1000C000AE01AF01A8013608840034090F21841362
:1000D0004B212408AC070318AD0A2508AD072608F4
:1000E000AE070318AF0A2708AF072D080120803E8E
:1000F000A1002F080120803EA107210CA8070008BD
:100100003404031C34068000290303194130A9007C
:100110000319A20A0319A30F68284A29A401A501FB
:10012000B320C63E031890280A3E031C9028A20064
:100130000310240DA000250DA100200DA10DA40782
:100140000318A10A2108A507A40DA50D2208A407DC
:100150000318A50AB320C63E0318B1280A3E0318A7
:100160009728240808006400C3200318B328F4204B
:100170000830A300F520C320A20CBE28A30BBA2888
:10018000F52022080800360884003408841780040B
:100190008413000533193406FF3E0800A600360814
:1001A00084000930A7000310DA20A60CA70BD4287E
:1001B0000314DA288413B31DE92800083404331D1E
:1001C00034068000841700083404031C34068000C1
:1001D000F52800083404031C340633193406800063
:1001E000841734098005F5283317330D0639A0002C
:1001F0000321A100A00A0321331F20293313A000EB
:1002000002303221202901308A002008820701347F
:10021000993403343934003460340C34FD34841799
:1002200080054A29A301A200FF30A207031CA307EF
:10023000031C4A290330A100E63020211429A10122
:10024000FC3EA000A109031C2B29FF300000A007E1
:1002500003182629A0076400A10F25290800031010
:10026000A10CA00CFF3E03182F2920084A29A20048
:1002700006303A29A80023082102031D412922083B
:100280002002043003180130031902302805031D31
:10029000FF304A2983130313831264000800831676
:1002A0009C0183129F0183169B0183120130BA00C7
:1002B0000130BE000830BD000830BC00D130B800AD
:1002C0000730B90032308A0112210630B600023000
:1002D000B4000230B3004F308A01CE206E308A0164
:1002E000CE206C308A01CE2069308A01CE206E305B
:1002F0008A01CE2065308A01CE200630B600083053
:10030000B4006430B700B5010430A700A500E230A6
:10031000A6008A014C200630B6000830B4006430D4
:10032000B700B5010130A700A500F430A6008A018E
:100330004C200630B6000830B4006430B700B50178
:100340000530A700A500DC30A6008A014C20323021
:100350008A011221B80A0319B90A3808A00039081D
:10036000A1000730A300D0308A0137218A11031D74
:100370006A2A0630B6000230B4000230B3005030B2
:100380008A01CE2069308A01CE206E308A01CE20CB
:1003900067308A01CE200630B6000130B40002304A
:1003A000B3008A018E20BA0064003A08003C8A112A
:1003B000031DDE29B801B9018A116A2A64003A08CE
:1003C000013C8A11031DFC290630B6000230B4003E
:1003D0000230B30050308A01CE2069308A01CE202D
:1003E0006E308A01CE2067308A01CE20D130B8002D
:1003F0000730B9008A116A2A64003A08023C8A115F
:10040000031D342A0630B6000130B4000230B300B8
:100410008A018E20BD000630B6000130B4000230E3
:10042000B3008A018E20BC000630B6000830B4004C
:100430006430B700B5010130A700A500F430A60074
:100440008A014C200630B6000830B4006430B70092
:10045000B5010530A700A500DC30A6008A014C20BC
:10046000B801B9018A116A2A64003A08033C8A116A
:10047000031D5E2A0630B6000130B4000230B3001E
:100480008A018E20BD000630B6000130B400023073
:10049000B3008A018E20BC000630B6000830B400DC
:1004A0006430B700B5010430A700A500E230A60013
:1004B0008A014C20B801B9018A116A2A64003A08FD
:1004C000043C8A11031D682A8A1150238A116A2A62
:1004D000B801B90105148316051083120130BE005E
:1004E0008A11892205308A01122105108316051010
:1004F00083128514831685108312BE018A11892206
:1005000005308A01122185108316851083128A0115
:10051000AA2964003E08003C8A11031D932A3C0866
:10052000BB008A11952A3D08BB0064003B08003CD3
:100530008A11031D9F2A8A110C238A11FA2A64004A
:100540003B08013C8A11031DA92A8A111D238A1127
:10055000FA2A64003B08023C8A11031DB32A8A115F
:100560002E238A11FA2A64003B08033C8A11031DDA
:10057000BD2A8A113F238A11FA2A64003B08043CF1
:100580008A11031DC72A8A1150238A11FA2A64008E
:100590003B08053C8A11031DD12A8A1161238A1167
:1005A000FA2A64003B08063C8A11031DDB2A8A11E3
:1005B00072238A11FA2A64003B08073C8A11031D42
:1005C000E52A8A1183238A11FA2A64003B08083C31
:1005D0008A11031DEF2A8A1194238A11FA2A6400D2
:1005E0003B08093C8A11031DF92A8A11A5238A11A7
:1005F000FA2A080008000616831606128312061748
:1006000083160613831286178316861383128616A3
:1006100083168612831208000612831606128312AE
:10062000061383160613831286138316861383120A
:100630008612831686128312080006168316061287
:1006400083120613831606138312861383168613EA
:1006500083128612831686128312080006128316EE
:100660000612831206178316061383128613831647
:1006700086138312861283168612831208000616CA
:100680008316061283120617831606138312861327
:10069000831686138312861283168612831208002D
:1006A000061283160612831206138316061383128C
:1006B0008617831686138312861283168612831278
:1006C00008000616831606128312061383160613F5
:1006D0008312861783168613831286128316861258
:1006E0008312080006128316061283120617831659
:1006F00006138312861783168613831286128316B7
:100700008612831208000616831606128312061735
:100710008316061383128617831686138312861296
:10072000831686128312080006128316061283129D
:1007300006138316061383128613831686138312F9
:100740008616831686128312080006168316061272
:1007500083120613831606138312861383168613D9
:0C0760008312861683168612831208008E
:02400E006A3F07
:00000001FF
